:020000040800F2
:1000000000000120D90B0008290C0008290C000869
:10001000290C0008290C0008290C00080000000029
:10002000000000000000000000000000290C000893
:10003000290C000800000000290C0008290C000809
:1000400000000000290C0008290C0008290C0008F9
:10005000290C0008290C0008290C0008290C0008AC
:10006000290C0008290C0008290C000800000000D9
:100070000000000000000000000000000000000080
:100080000000000000000000FD0900080000000062
:10009000000000000000000000000000290C000823
:1000A000290C0008290C0008290C0008290C00085C
:1000B000290C0008290C000800000000290C000889
:1000C000290C0008290C0008290C0008290C00083C
:1000D000290C0008000000000000000000000000E3
:1000E000290C0008290C0008290C00080000000059
:1000F0000000000000000000000000000000000000
:1001000000000000290C000800000000290C000875
:1001100000000000000000000000000000000000DF
:1001200000000000000000000000000000000000CF
:1001300000000000000000000000000000000000BF
:10014000000000000000000000000000290C000872
:10015000000000000000000000000000000000009F
:10016000290C0008290C0008000000000000000015
:10017000000000000000000000000000000000007F
:1001800000000000290C0008000000000000000032
:04019000290C00082E
:1001940010B5054C237833B9044B13B10448AFF3BD
:1001A40000800123237010BD2C04002000000000F7
:1001B4004C0E000808B5034B1BB103490348AFF3C9
:1001C400008008BD00000000300400204C0E000830
:1001D40080B483B000AF78607B680C221A707B68AF
:1001E40000225A707B680A229A7000BF0C37BD4601
:1001F4005DF8047B7047000080B582B000AF034611
:10020400FB716A4B5B6C694A43F480735364FB79FA
:10021400072B0BD8FB791946654800F0EBFA634BC2
:100224001B6B624A43F00103136326E0FB79082B3E
:1002340002D0FB79092B0DD15C4B1B6B5B4A43F05D
:1002440002031363FB79083BDBB21946594800F0FB
:10025400D1FA12E0FB79092B0FD9FB790E2B0CD8BC
:10026400524B1B6B514A43F004031363FB790A3B63
:10027400DBB21946504800F0BDFA504B9B684F4A18
:1002840043F0010393604E4B5B684D4A23F4803383
:1002940053604B4B5B684A4A23F400335360474B2B
:1002A4009B68464A23F400639360444B5B6B434A68
:1002B40023F01F035363414B5A6BFB793F491343AC
:1002C4004B63404B5B78002B08D0012B0DD13B4B8B
:1002D4009B683A4A43F00203936006E0374B9B68FD
:1002E400364A23F00203936000BF364B1B78063B6B
:1002F400062B45D801A252F823F000BF6B03000877
:10030400850300085103000885030008370300082B
:10031400850300081D030008284B5B68274A23F067
:1003240080735360254B5B68244A23F00073536049
:1003340026E0224B5B68214A43F0807353601F4BD5
:100344005B681E4A23F00073536019E01B4B5B6823
:100354001A4A23F080735360184B5B68174A43F0C2
:10036400007353600CE0154B5B68144A43F08073D0
:100374005360124B5B68114A43F00073536000BF33
:100384000E4B5B680D4A43F0200353600E4B1B6811
:100394000D4A43F480231360084B9B68074A43F0DB
:1003A4008043936000BF0837BD4680BD00380240DB
:1003B4000000024000040240000802400020014006
:1003C400002301404C04002000E100E080B483B02D
:1003D40000AF7860134B1B6803F00203002B1AD0A4
:1003E400104BDB6C07EE903AB8EE677ADFED0E6ADD
:1003F400C7EE267AB1EE047A67EE877A9FED0B7A20
:1004040067EE877AFDEEE77A17EE903A9AB27B6848
:100414001A80002300E0012318460C37BD465DF81E
:10042400047B70470020014000F4BF4500001643E0
:1004340080B582B000AF002301220021154800F0EE
:100444003BF9002301220121124800F035F9002371
:10045400012202210F4800F02FF900237B6009E0FC
:100464007B68D9B2002301220B4800F025F97B6890
:1004740001337B607B68072BF2DD382000F00EF837
:100484000C2000F00BF8012000F008F800BF08373A
:10049400BD4680BD000002400004024080B588B023
:1004A40000AF0346FB7100220121334800F05BFAE0
:1004B40000220021304800F056FA0023FB6102E0DC
:1004C400FB690133FB61FB6941F287329342F7DD3B
:1004D4000023BB6102E0BB690133BB61BB6941F22C
:1004E40087329342F7DD01220221234800F03BFAD0
:1004F40000237B6102E07B6901337B617B6941F20C
:1005040087329342F7DD00233B6112E03B69D9B2A5
:1005140001223B6902FA03F35AB297F907301340F8
:100524005BB2DBB21A46154800F01DFA3B69013391
:100534003B613B69072BE9DD0023FB6002E0FB68BC
:100544000133FB60FB6841F287329342F7DD0022FE
:100554000221094800F007FA0023BB6002E0BB68EF
:100564000133BB60BB6841F287329342F7DD00BFC1
:100574002037BD4680BD00BF000002400004024099
:1005840080B588B000AF7860002201212D4800F0CA
:10059400EAF9012200212B4800F0E5F90023FB6170
:1005A40002E0FB690133FB61FB6941F2873293424C
:1005B400F7DD01220221234800F0D5F90023BB61B5
:1005C40002E0BB690133BB61BB6941F287329342EC
:1005D400F7DD00237B6112E07B69D9B201227B69DC
:1005E40002FA03F35AB27B685BB213405BB2DBB22C
:1005F4001A46154800F0B7F97B6901337B617B69C2
:10060400072BE9DD00233B6102E03B6901333B61D9
:100614003B6941F287329342F7DD00220221094807
:1006240000F0A1F90023FB6002E0FB680133FB60EA
:10063400FB6841F287329342F7DD00BF2037BD46A5
:1006440080BD00BF000002400004024080B584B0B9
:1006540000AF78600023FB7309E0FB7B7A681344E6
:100664001B781846FFF78CFFFB7B0133FB73FB7B86
:100674007A6813441B78002BEFD100BF1037BD46B6
:1006840080BD80B586B000AF786007F108030A2208
:100694001946786800F008FB07F108031846FFF7CD
:1006A400D5FF00BF1837BD4680BD80B500AF01201F
:1006B400FFF7F4FE00BF80BD80B582B000AF786064
:1006C400084611461A460346FB700B46BB70134698
:1006D4007B707B68404A934206D1404B1B6B3F4A78
:1006E40043F00103136335E07B683D4A934206D12E
:1006F4003A4B1B6B394A43F0020313632AE07B68CD
:10070400384A934206D1354B1B6B344A43F00403F9
:1007140013631FE07B68344A934206D12F4B1B6B53
:100724002E4A43F00803136314E07B682F4A934274
:1007340006D12A4B1B6B294A43F01003136309E0CB
:100744007B682B4A934205D1244B1B6B234A43F00D
:1007540080031363BB78002B1CD07B681A68FB787A
:100764005B00012101FA03F31A437B681A607B687A
:100774001A68FB785B000133012101FA03F3DB43C0
:100784001A407B681A607A78FB781946786800F01A
:1007940069F81CE07B681A68FB785B00012101FAA8
:1007A40003F3DB431A407B681A607B681A68FB78A2
:1007B4005B000133012101FA03F3DB431A407B6838
:1007C4001A607A78FB781946786800F086F800BFDA
:1007D4000837BD4680BD00BF00000240003802401B
:1007E4000004024000080240000C024000100240D5
:1007F400001C024080B483B000AF78600B46FB70ED
:100804007B681A68FB785B00012101FA03F31A4341
:100814007B681A607B681A68FB785B0001330121EE
:1008240001FA03F31A437B681A607B68DA68FB7881
:100834005B00012101FA03F3DB431A407B68DA60B1
:100844007B68DA68FB785B000133012101FA03F36A
:10085400DB431A407B68DA6000BF0C37BD465DF8A5
:10086400047B704780B483B000AF78600B46FB70A4
:100874001346BB707B681A68FB785B00012101FAA0
:1008840003F31340002B21D07B681A68FB785B00CC
:100894000133012101FA03F31340002B16D1BB7875
:1008A400002B02D0BB78012B0ED17B685A68FB78F1
:1008B400012101FA03F3DB431340B978FA7801FA12
:1008C40002F21A437B685A60012300E000231846B1
:1008D4000C37BD465DF8047B704780B483B000AF2D
:1008E40078600B46FB701346BB707B681A68FB7814
:1008F4005B00012101FA03F31340002B2CD17B6828
:100904001A68FB785B000133012101FA03F31340F9
:10091400002B21D1BB78002B05D0BB78012B02D052
:10092400BB78022B16D17B68DA68FB785B00012167
:100934009940FB785B000133012000FA03F30B4379
:10094400DB431340B978FA78520001FA02F21A43F1
:100954007B68DA60012300E0002318460C37BD46AB
:100964005DF8047B704780B483B000AF78600B46B9
:10097400FB701346BB707B681A68FB785B0001212F
:1009840001FA03F31340002B18D0BB78002B09D0D5
:100994007B685A69FB78012101FA03F31A437B68E7
:1009A4005A6109E07B685A69FB78012101FA03F373
:1009B400DB431A407B685A61012300E00023184698
:1009C4000C37BD465DF8047B7047000080B500AF6E
:1009D400FFF72EFD0023012207210548FFF76CFED7
:1009E4000448FFF7F5FB0520FFF706FCFEE700BF10
:1009F400000002404C04002080B582B000AFFFF735
:100A040054FE1848FFF7E2FC00237B6002E07B6899
:100A140001337B607B68144A9342F8DD012207218D
:100A24001248FFF7A0FF0F4B1B881846FFF729FE5B
:100A340000233B6002E03B6801333B603B680A4AA9
:100A44009342F8DD002207210848FFF78CFF084B8A
:100A54009B68074A43F08043936000BF0837BD4654
:100A640080BD00BF480400203F0D03000000024089
:100A74000020014080B500AF164BD3F88830154AEA
:100A840043F47003C2F88830134B1B68124A43F0D6
:100A940001031360104B00229A600F4B1B680E4A2F
:100AA40023F0847323F4803313600B4B0B4A5A6096
:100AB400094B1B68084A23F480231360064B002269
:100AC400DA6000F00DF8034B4FF000629A6000BF4B
:100AD40080BD00BF00ED00E000380240103000246B
:100AE40080B483B000AF00237B6000233B60354BB0
:100AF4001B68344A43F480331360324B1B6803F49D
:100B040000333B607B6801337B603B68002B03D17F
:100B14007B68B3F5A04FF0D12A4B1B6803F4003374
:100B2400002B02D001233B6001E000233B603B68C3
:100B3400012B40D1234B1B6C224A43F08053136496
:100B4400214B1B68204A43F4404313601D4B1D4A4C
:100B54009B6893601B4B1B4A9B689360194B9B6873
:100B6400184A43F480539360164B184A5A60154B45
:100B74001B68144A43F08073136000BF114B1B6859
:100B840003F00073002BF9D0114B40F202721A608B
:100B94000C4B9B680B4A23F003039360094B9B683F
:100BA400084A43F00203936000BF064B9B6803F0BE
:100BB4000C03082BF9D100BF0C37BD465DF8047B4C
:100BC400704700BF003802400070004019544107CC
:100BD400003C02400D4885460D480E490E4A00234C
:100BE40002E0D458C4500433C4188C42F9D30B4ADD
:100BF4000B4C002301E013600432A242FBD3FFF745
:100C040039FF00F011F8FFF7E1FEFEE700000120D4
:100C1400000000202C0400209C0E00082C0400205E
:100C240074040020FEE7000070B50D4E0D4D761BD8
:100C3400B61006D00024013455F8043B9847A64268
:100C4400F9D1094E094D761B00F0FEF8B61006D016
:100C54000024013455F8043B9847A642F9D170BDED
:100C6400900E0008900E0008980E0008900E0008E0
:100C7400931E222B15D80A2A10B50B4605D00C4614
:100C8400194600F013F8204610BD0028F7DA2D2489
:100C940003F8014B40420C46194600F007F8204681
:100CA40010BD002008707047FFF7E2BFF0B4DFF812
:100CB40078C0174604460E46BCE80F008AB06D465D
:100CC4000FC5BCE80F000FC59CE80300BB1E45F828
:100CD400040B222B297023D8751E2846002200E01D
:100CE4001A46B4FBF7F10AAB07FB114423440C4644
:100CF40013F8283C00F8013F531C0029F0D1F154AB
:100D040052B1334413F8011D15F8010F2970013451
:100D1400111B8C421870F5DB30460AB0F0BC7047EA
:100D240000203070F9E700BF680E0008024B13B1D1
:100D3400024800F005B8704700000000510D00089B
:100D4400002301461A46184600F01EB838B50A4C6E
:100D54000A4D641BA4100AD004F18043013B05EB47
:100D64008305013C55F804399847002CF9D1BDE8B6
:100D7400384000F06FB800BF9C0E0008980E0008C1
:100D8400704700BF704700BF2DE9F8432B4D06465E
:100D9400286898460F469146FFF7F2FF284B1C68D7
:100DA400D4F84831002B3DD05A681F2A0DDC02F1DB
:100DB400010C16BB0232C3F804C0286843F8227041
:100DC400FFF7E0FF0020BDE8F8831E4B7BB34FF430
:100DD400C870AFF30080034648B3D4F8482100211B
:100DE400C0E900214FF0010CC4F848010A46C0F8DC
:100DF4008811C0F88C11002EDCD003EB8201012491
:100E0400C1F88890D3F8880194402043022EC3F897
:100E14008801C1F80881CDD1D3F88C110C43C3F8F3
:100E24008C41C7E704F5A673C4F84831BCE72868C9
:100E3400FFF7A8FF4FF0FF30C5E700BF28040020EC
:100E4400640E000800000000F8B500BFF8BC08BC40
:100E54009E467047F8B500BFF8BC08BC9E46704774
:100E6400000000203031323334353637383961628E
:100E7400636465666768696A6B6C6D6E6F707172C6
:0C0E8400737475767778797A00000000AE
:080E9000310D0008B901000852
:040E980095010008B8
:100E9C0000000000EC02002054030020BC030020E2
:100EAC000000000000000000000000000000000036
:100EBC000000000000000000000000000000000026
:100ECC000000000000000000000000000000000016
:100EDC000000000000000000000000000000000006
:100EEC0000000000000000000000000000000000F6
:100EFC0000000000000000000000000000000000E6
:100F0C0000000000000000000000000000000000D5
:100F1C0000000000000000000000000000000000C5
:100F2C0000000000000000000000000000000000B5
:100F3C0000000000000000000100000000000000A4
:100F4C000E33CDAB34126DE6ECDE05000B00000069
:100F5C000000000000000000000000000000000085
:100F6C000000000000000000000000000000000075
:100F7C000000000000000000000000000000000065
:100F8C000000000000000000000000000000000055
:0C12BC00000000000000000050040020B2
:0400000508000BD90B
:00000001FF
